:020000040000fa
:080000000002040000000000f2
:020000040000fa
:10000800260500002605000026050000260500003c
:10001800260500002605000026050000260500002c
:10002800260500002605000026050000260500001c
:100038002605000026050000260500009a0200009b
:1000480026050000260500002605000026050000fc
:1000580026050000260500002605000026050000ec
:1000680026050000260500002605000026050000dc
:1000780026050000260500002605000026050000cc
:1000880026050000260500002605000026050000bc
:100098002605000026050000d20200002e030000fd
:1000a800260500002605000026050000260500009c
:1000b800260500002605000026050000260500008c
:1000c800260500002605000026050000260500007c
:1000d800260500002605000026050000260500006c
:1000e800260500002605000026050000260500005c
:1000f800260500002605000026050000260500004c
:10010800260500002605000026050000260500003b
:10011800260500002605000026050000260500002b
:10012800260500002605000026050000260500001b
:10013800260500002605000026050000260500000b
:1001480026050000260500002605000026050000fb
:1001580026050000260500002605000026050000eb
:1001680026050000260500002605000026050000db
:1001780026050000260500002605000026050000cb
:1001880026050000260500002605000026050000bb
:1001980026050000260500002605000026050000ab
:1001a800260500002605000026050000260500009b
:1001b800260500002605000026050000260500008b
:1001c800260500002605000026050000260500007b
:1001d800260500002605000026050000260500006b
:1001e800260500002605000026050000260500005b
:0801f8002605000026050000a9
:020000040000fa
:10020800260500002605000026050000260500003a
:10021800260500002605000026050000260500002a
:10022800260500002605000026050000260500001a
:100238002605000026050000260500009a02000099
:1002480026050000260500002605000026050000fa
:1002580026050000260500002605000026050000ea
:1002680026050000260500002605000026050000da
:1002780026050000260500002605000026050000ca
:1002880026050000260500002605000026050000ba
:100298002605000026050000d20200002e030000fb
:1002a800260500002605000026050000260500009a
:1002b800260500002605000026050000260500008a
:1002c800260500002605000026050000260500007a
:1002d800260500002605000026050000260500006a
:1002e800260500002605000026050000260500005a
:1002f800260500002605000026050000260500004a
:100308002605000026050000260500002605000039
:100318002605000026050000260500002605000029
:100328002605000026050000260500002605000019
:100338002605000026050000260500002605000009
:1003480026050000260500002605000026050000f9
:1003580026050000260500002605000026050000e9
:1003680026050000260500002605000026050000d9
:1003780026050000260500002605000026050000c9
:1003880026050000260500002605000026050000b9
:1003980026050000260500002605000026050000a9
:1003a8002605000026050000260500002605000099
:1003b8002605000026050000260500002605000089
:1003c8002605000026050000260500002605000079
:1003d8002605000026050000260500002605000069
:1003e8002605000026050000260500002605000059
:0803f8002605000026050000a7
:020000040000fa
:10040000af8a20000e7f24000e018800000000004b
:10041000000020000000e000020032000001200087
:10042000200288000c000700202621000100200087
:1004300011000700000020000000e0000200320070
:10044000000002000000000078040200000000002c
:100450000040da000000fe004440a9000000200037
:100460000000e0000300320000002000a00188002e
:100470004440a80000000600910188008000780038
:100480000000eb0015003700e280400032a0b4000d
:100490009101ba00e280400032a0b4009102ba009b
:1004a000e280400032a0b4000002eb00472bde00e7
:1004b000f507b200602ce10004003a000059eb009f
:1004c0008301e900fdff3e00040037006128e100e0
:1004d000010032000082eb00040007001101ba00a5
:1004e0000200e000e8ff3a00000006003159ba00bf
:1004f0008301e9000c0032002159ba008301e900b0
:10050000080032000400e00003003a00e2804000ee
:1005100032a0b400f5ff370011d9ba008301e90019
:10052000faff3a008100e800e180400032a0b40008
:1005300000000600801f7800849fbe003400f80091
:1005400000002000a00188000000fa00240f8000b5
:1005500034428800a40f8000444288004542800055
:10056000744080000482520054408800354280006c
:10057000844080000482520064408800444280002d
:1005800074408800344280008440880084e0a900e0
:100590000080fa003400f9004f02be004f007800de
:1005a000004006003600f800809fbe00829fbe001b
:1005b000849fbe00869fbe000200fa0087c0a9008b
:1005c0000042eb00044f7800690107000002780048
:1005d000044f780084c5b3009e42780084cf520057
:1005e00003003a0014002000144288000a0037007b
:1005f00044c2b3009e42780084cf520006003a0005
:100600000002eb00244288000002eb001442880044
:10061000140020000442880014428000e10f5200c0
:1006200007003a0025428000248120000482420015
:100630001e4a7800244280000402e8002442880018
:100640000080fa004f03be004f02be004f01be0003
:100650004f00be003600f90000400600801f780001
:100660000000fa0087e0a9000080fa004f0078003f
:10067000004006000200fa000002eb00040f7800c0
:100680000002eb00040f7800080037009e02e8002b
:10069000248120000482420014427800b5822000a8
:1006a0009e824200844a78001e0fe8001e027800f5
:1006b000e20f5200f5ff34000002eb00040f780057
:1006c000090037001e027800e50242002481200064
:1006d0000482420014427800f58220009e8242008b
:1006e000844a78001e0fe8001e027800e20f5200d4
:1006f000f4ff34000002eb00040f7800090037001b
:100700001e027800e9024200248120000482420097
:1007100014427800358320009e824200844a78008b
:100720001e0fe8001e027800e30f5200f4ff3400b1
:100730000002eb00040f7800090037001e02780069
:10074000ee0242002481200004824200144278001c
:10075000758320009e824200844a78001e0fe800c4
:100760001e027800e30f5200f4ff34000002eb0099
:10077000040f7800090037001e027800f3024200df
:10078000248120000482420014427800b5832000b6
:100790009e824200844a78001e0fe8001e02780004
:1007a000e30f5200f4ff3400b0822000ab020700d8
:1007b00000027800f44488000002eb00040f780087
:1007c000010037001e0fe800340620009e0278006a
:1007d000848f5200fbff3400f08220009f0207004c
:1007e00000027800044588000002eb00040f780046
:1007f000010037001e0fe800340620009e0278003a
:10080000848f5200fbff34003083200093020700e6
:1008100000027800144588000002eb00040f780005
:10082000010037001e0fe800340620009e02780009
:10083000848f5200fbff3400708320008702070082
:1008400000027800244588000002eb00040f7800c5
:10085000010037001e0fe800340620009e027800d9
:10086000848f5200fbff3400b08320007b0207001e
:1008700000027800344588000080fa00000006007d
:100880000000fa00c002a900c022a900c8a2a80066
:100890006b60a800c842a900c802a900c022a90034
:1008a000c822a90081e0a900a2022000d155290098
:1008b00000402c00aa000700d0f52f00810007009f
:1008c00051c32000d0fa2d0074000700c0ff2f0094
:1008d000600007003535800004fe2f0004826200ae
:1008e0005400b300343588000080fa000000060090
:1008f0000800fa00ea060700e1ff0700140f800075
:100900000440a0000450a1000460a000140f88005f
:100910000545800044062000848f520021003400e9
:1009200004458000c5f92f0084824200f444800011
:100930004606200004025300848242002400200066
:10094000110009008402d80000027800cfa2de0066
:100950000400be005b0107000002be00048fbe0061
:1009600004458000c5f92f0084824200f4448000d1
:100970004406b100848242002400200011000900d6
:100980008402d80000027800cfa2de000400be007e
:100990004c0107000002be002407980035079800ac
:1009a0002000370004458000c5f92f0084824200f2
:1009b000f44480004406b1008482420024002000f8
:1009c000110009008402d80000027800cfa2de00e6
:1009d0000400be003b0107000002be00048fbe0001
:1009e00004458000c5f92f0084824200f444800051
:1009f00046062000040253008482420024002000a6
:100a0000110009008402d80000027800cfa2de00a5
:100a10000400be002b0107000002be00240798005e
:100a20003507980004428000e10f520001003a00af
:100a300010ff07002e009000be0090000805070080
:100a40001e00be003e050700b1ff37000040da007f
:100a50000000fe0084e0a900e7026000cc2add006f
:100a6000f4ff2800360580000602620005027200cd
:100a700034058800680060004300de00610060000b
:100a80004700dd00f4f72f00a50480000502620096
:100a900000027200a4048800000006000621ef0096
:100aa00061088800800888001061a9000000060025
:100ab000001020003202b6000000e9004f00de0006
:100ac0000000060087c0a90087e0a900e7026000d7
:100ad000c82add00f48f2f00960580000602620010
:100ae0000502720094058800800278000507b200b4
:100af000c82add00f4ff2800960580000602620087
:100b00000502720094058800e8026000c32ade0036
:100b1000e1826200ce2add00f4ff2b00b6048000e3
:100b20000602620005027200b40488000008b200e8
:100b30004700de00610060004f00dd00f4ff270089
:100b4000b50480000502620000027200b40488004f
:100b50000000060090118000614060000000060067
:100b6000c2118800801188009111880000000600e1
:100b70008411800066026200e60f520002003a0013
:100b8000b011800000000600b0118000f00fb2002c
:100b9000000006008411800066026200e60f520029
:100ba00001003200f00fb200a01188000000060022
:100bb00003f0a200889fbe008a9fbe008c1f7800b1
:100bc00000010700070133006450e1004f003200cc
:100bd0006420e1005200320003826c0007003b00f9
:100be0000905d0000306d000820f54000c065d00fa
:100bf0000200390002003200890178000306780003
:100c00008582550004003d000003fd008103fd00c6
:100c10008502ea008b854200840f720002003b00cf
:100c200060001000e08018006011b8000005eb00c3
:100c30007a28e1000a00390006007800c75ddd006f
:100c4000f707b200878075002d00370082817100a0
:100c50000a017800610560008180d1000080d30026
:100c60008502e900f9ff3b00060440008784480044
:100c700002003b0060041400e0841c000988a3000b
:100c8000070032008a817100828171006101640075
:100c90008904d1000884d3008b05e80017003700d1
:100ca0000978a30013003a000b00e00013003400a1
:100cb0008b05e9000804440089844c000a44740050
:100cc0000978a3000d003a000b00e0000700340093
:100cd0008b05e9000804440089844c0001003a00b7
:100ce0000b0020000978a300f7ff32000001eb00a1
:100cf00002003700828171000a0178007600070047
:100d00000cf0a70001f0a000bf0037006420e10054
:100d100002003a00838f6c00bf0033000801be0060
:100d20000200be00b8003700889fbe008a9fbe0048
:100d30008c1f7800a3000700aa00330003866c0014
:100d40006450e1002e0032006420e10033003200e4
:100d50006150e1002f0032006120e10031003200db
:100d600085855500eb07b00009002000080420002d
:100d7000050037000804440089844c000a00310053
:100d80000603430087834b000001530081815b0011
:100d9000f8ff33000203be000800a000080444006e
:100da00089844c00f6ff3900c639dd0083017300e9
:100db00001003200130020008904d1000884d30010
:100dc0000998a300050032000800a7000300a00056
:100dd0008904d1000884d3008b05e8008904d10080
:100de0000884d3000001eb000281d2003a00070022
:100df00001f0a1000cf0a70001f0a0008200370074
:100e00006420e100840032000801be000200be0040
:100e1000f7ff37006120e1007f0032006000b8007a
:100e2000f3ff37000000200001f82700f0ff370033
:100e300014002000af003700f4ff2f00ad00370092
:100e40000001be004a0007000470a70003f0a100e3
:100e50006509b100160032000d0035006828e10078
:100e600006003500f0ff2f00f1ff27000300e0002f
:100e700013003b00010028000000050000004000b6
:100e8000818048008502e900fcff3a000800370035
:100e9000f88f420002003c008000eb0000000500db
:100ea0008100d1000080d3008502e800fcff3a00f9
:100eb0000300e00002003b0060001000e08018002a
:100ec000000006004f89de0082017800a400370090
:100ed0006011b800b2003700810020006180550029
:100ee0000b003d000b00200061fe2f000100e1001f
:100ef0001d00340082817100610164008904d10009
:100f00000884d3000000e800faff3a0071002000d6
:100f100061006400030070000200600009003200fc
:100f200061044400e0844c000988a50005003200fb
:100f30008b05e8006808e10002003a008904d1004e
:100f40000884d300f20f20000258e10005003d00a4
:100f5000c75ddd00f907b2008980750008007800e0
:100f6000000006000bf827008b0078000000050049
:100f7000c70ade00f107b200f50fb2000800320028
:100f8000e1cf4200020032000170a0002400050001
:100f9000810f7000010032000408050044000500c4
:100fa000810f700002003a00140005008502e9007c
:100fb0000000400081c04800fcff3b000170a00021
:100fc000240005000004be00e9ff07000003be0086
:100fd0000405be000200be00e5ff0700844f750057
:100fe000000006000200be006450e100050036006b
:100ff0006420e100020036000968a30001003a0005
:101000000800be000160a0004f0678004f05be003a
:101010004f04be0000000600f0ff2f00f1ff270084
:10102000f9ff3700889fbe008a9fbe008c1f7800a2
:10103000e4ff0700ebff330003866c006450e1001f
:10104000240032006420e100270032006150e100fa
:10105000220032006120e100210032008b85420035
:10106000eb07b1000134b800003ab80008044200b0
:1010700089844a00013ab8000030b80088804000f6
:1010800009014a000400330000004000818048004c
:10109000020149008b05e900c909dd0083017000e8
:1010a0000100320013002000c814de004814dd00e7
:1010b0004709de001200b200c808de000884700094
:1010c00085ff070001f0a1000cf0a70001f0a000cf
:1010d000cdff37006120e100cfff32000801be00e4
:1010e0000200be00f7ff37006150e100fcff3a004c
:1010f000c9ff3700889fbe008a9fbe00841f78000a
:10110000b0ff07004f00780011003300f0ff2f0000
:10111000838f6c0006003b00040565000a00a700f1
:101120000800370009f0a600100020000800370072
:10113000820f5400838f5c000300390010002000f0
:1011400001003e000000200009f0a7000000ea00b6
:101150004f05be004f04be000000e0000000060086
:10116000881f7800030478000300e00007003d00ba
:1011700060001000e080180060011900e081190093
:1011800002003b0001f02d000300370004000700bf
:1011900008f0a70001f0a0004f047800000006004e
:1011a000889fbe008a9fbe0000827000040271000a
:1011b00004827100260032000004be000200be005e
:1011c0006011b8006b092000950220000182cf0059
:1011d0000a0039000541b1000082cf000700390044
:1011e0000541b1000982cf00040039000541b1007a
:1011f0000882cf00010039000541b10005425200cc
:10120000120032000a003b0082817100610164001b
:101210008100d1000080d3008984d3000884d300ea
:101220008b05e8000442e800f7ff3a0007003700aa
:101230000804440089844c00000048008180480074
:101240008b05e9000442e900f9ff3a0022ff07009c
:101250004f05be004f04be000000060006c2b300ea
:101260000002780004007800b042780086cf520077
:10127000fbff3200e9cf5200f9ff3200d6c2b300c3
:1012800086cf520003003a000002780016c0b30077
:10129000050037000043eb00b7c2b30087cf520010
:1012a00001003a00000278000000eb000200370065
:1012b0006a00b90000804200b402fb000503b100df
:1012c000e98f5200faff3600e04f53000100320070
:0812d0000000ea000000060026
:020000040000fa
:1012d8000000fa00153a8000f40b20000483620035
:1012e800640420007505200027742000844b7800d2
:1012f800854b7800864b780034358000f401b300c4
:10130800343588002536800004fe2f0004826200f0
:101318005400b30024368800153a800004042000e5
:101328000403780005037300640420007505200099
:1013380027742000844b7800854b7800864b780012
:101348000080fa00000006000000fa00153a80004c
:10135800f40b20000483620064042000750520005b
:1013680027742000844b7800854b7800864b7800e2
:1013780025368000f40f2e0004826200243688008f
:101388003535800004fe2f00048262005400b3004b
:1013980034358800153a80000404200004037800de
:1013a80005037300640420007505200027742000dd
:1013b800844b7800854b7800864b78000080fa00d3
:1013c800000006000200fa00004f7800000000004c
:1013d800951180000420200004826200e00f520072
:1013e800fbff3a009e4278000582fb00040078006b
:1013f800e6fd0700e4882000144278001e424200ff
:10140800040078008ee8b7000080fa0000000600ab
:101418000400fa00004f780011479800224798000e
:10142800abff070000c0eb00e6ff070000c0eb00c1
:10143800e4ff07000042eb00040078008ee8b700e4
:101448001e407800dfff07001e42900004c2e8003b
:1014580004407800dbff07002e409000d9ff07000a
:101468000080fa00000006000600fa0020479800f5
:10147800210798000042eb00044f7800080037006d
:101488009e4278000582fb00ae0290000482420072
:101498001442780004407800caff07001e4fe80095
:1014a8002e4290009e42780084cf5200f4ff39000b
:1014b8000080fa00000006000000fa00e48820001e
:1014c8001442780004c2ea0004407800bdff070017
:1014d8000000000074fd070000427800e04f520051
:1014e800fcff3a0098ff07000080fa0000000600a1
:1014f8000200fa00700037009bfd07000002780028
:1015080004427800044f780044458000e50f42000b
:1015180006003a001e427800e14f420003003a00fc
:10152800c4ff2f004445880063003700444580000d
:10153800e40f42000d003a001e427800e14f4200dd
:101548000a003a00d4ff2f00444588000042eb000f
:101558000002fd008ee8b7000002fd00258920008a
:1015680014c0b300944298005300370044458000eb
:10157800e30f420006003a00e4ff2f0044458800cc
:101588001e42780025892000844a78004a003700e6
:1015980044458000e20f420011003a001e427800e4
:1015a800e54f52000e003e000082eb0044458800e3
:1015b80024892000944278001e42780004c2420028
:1015c8000002fd008ee8b7000002fd001e42780010
:1015d80004c2e900258920009442980036003700ab
:1015e80044458000e10f420007003a000002eb008a
:1015f800444588008e02780024892000150378006d
:10160800160298002c00370044458000e00f520075
:101618001600350024892000144290008482fb00c3
:1016280044458000848f52001000340045458000f6
:101638000503780064892000040343001e427800f3
:10164800044b78000502e80044458800e58820003e
:10165800954278001e42780004c242000002fd0054
:101668008ee8b7000002fd0013003700248920002f
:10167800144290008482fb0044458000848f52000d
:101688000b003a009e427800e4882000144278005b
:1016980004c26200e04f520005003a001400200026
:1016a80084448800b4ff2f004445880002003700b6
:1016b800b4ff2f004445880024fd0700004278004d
:1016c800e04f52008cff3a000080fa00000006004c
:1016d8000200fa00004f780012c0b30021c0b30026
:1016e8001e4078004aff070073ff07000080fa00d9
:1016f800000006000400fa00004f78001147980027
:101708002247980022c0b30021c0b3001e407800d1
:101718003fff07001e4090002aff07002e40900060
:1017280028ff070064ff07000080fa000000060099
:101738000600fa00004f78001147980022479800e9
:10174800230798002e4290000442e80032c0b300fc
:10175800844078001e4078002dff07001e4090004e
:1017680018ff0700ae0090002e4090003eff0700d3
:1017780051ff07000080fa00000006000600fa008a
:10178800004f7800114798002247980023079800d7
:101798002e4290000442e80042c0b3008440780022
:1017a8001e4078001aff07001e40900005ff070042
:1017b800ae0090002e4090002bff07003eff070070
:1017c8000080fa00000006000200fa00004f7800ce
:1017d80052c0b3008040eb001e4078000cff0700a9
:1017e80035ff07000080fa00000006000200fa003a
:1017f800004f780062c0b3008040eb001e407800c4
:1018080003ff07002cff07000080fa000000060015
:101818000200fa00004f78009e4278000582fb0023
:10182800cfa2de000603200007002000860f52002a
:10183800878f5a0036003e000460010032003700ee
:10184800330037002e0037002d0037002c003700fa
:101858002b0037002c0037002d0037002a003700f6
:101868002b0037002a0037002500370024003700f6
:1018780023003700240037002500370020003700f8
:101888001f0037001e0037001d0037001e003700fc
:101898001f0037001c0037001d00370018003700f4
:1018a80017003700160037001500370014003700fe
:1018b80013003700140037001500370012003700f6
:1018c8001300370010003700110037000e003700f2
:1018d8000f0037000c0037000d0037000a003700f2
:1018e8000b003700060037000500370004003700fa
:1018f80007003700020037000100370002003700f8
:1019080014c0b3000300370024c0b300010037003f
:101918000042eb00044078000080fa000000060056
:101928000400fa00881f7800004f780011479800db
:10193800120798000002eb00844488000e84e80037
:101948001e409000b2ff070000427800880178002e
:10195800044178009e4090001e40780074ff070004
:101968004f0478000080fa00000006000200fa0028
:10197800004f7800114798000002eb00844488006b
:101988001e409000a2ff0700004278000441780042
:101998009e4090001e40780056ff07000080fa0025
:1019a800000006000000fa00c1e1a800040e800053
:1019b8000420a1000430a100040e8800040e800059
:1019c8000400a1000410a100040e8800c45d2000da
:1019d800240e8800c921a800c941a800c881a80010
:1019e800c8a1a900c8c1a800c801a900c821a900a8
:1019f800c841a9000002eb00b40e88000002eb0009
:101a0800d40e8800c842a900c802a900c022a900b3
:101a1800c822a900cc42a900c422a900cc22a9004e
:101a2800cc02a9000080fa00000006000000fa00bd
:101a3800e1a1a800040f80000480a1000490a00088
:101a480004a0a000040f8800e041a900e021a9003b
:101a5800e534800004fe2f00048262006400b300b5
:101a6800e4348800e5348000f40f2e00848262009c
:101a78000470200005027200e4348800f1a1a80077
:101a8800840f80000480a1000490a00004a0a0009e
:101a9800840f8800f041a900f021a90005358000d5
:101aa80004fe2f00048262000430a0000435880080
:101ab80005358000f40f2e00848262000490200017
:101ac80005027200043588000080fa000000060054
:101ad8000a00fa00881f780010079800210798006c
:101ae8003207980043079800180020006011b800da
:101af8003e009000ce009000cdfc07000002780068
:101b0800e00f520001003d000004eb00080f7800d0
:101b18001e02780004427800614262000482fb00e1
:101b2800610262004222dd0066168000b5ff2f00c8
:101b38008502630005027200641688001e027800a0
:101b480004f0a7000402ea000402e9004f22de00c4
:101b5800044278000482fb00610262000402420031
:101b680026168000d5ff2f0085026300050272004b
:101b780024168800180020006011b8001e0090008c
:101b8800ae009000aafc070000027800e00f5200a7
:101b980001003d000004eb00080f78001e027800e9
:101ba80004f0a7000402ea000402e9004f22de0064
:101bb800044278000482fb006102620004024200d1
:101bc80066168000d5ff2f008502630005027200ab
:101bd800641688001e0278000442780061426200a0
:101be8000482fb006102620066168000e5ff2f0098
:101bf800850263000502720064168800c45d200037
:101c0800240e88001e029000ae02900005f0a1008c
:101c180002002000031f24000400be00fffc070090
:101c28000002be000400be0083fc07000002be00e4
:101c380004027800b40e88003e029000ce029000a4
:101c480005f0a10002002000031f24000400be00cc
:101c5800f2fc07000002be000400be0076fc07008c
:101c68000002be0004027800d40e88004f047800f9
:101c78000080fa00000006000e00fa00881f7800b5
:101c8800100798002107980032079800430798002a
:101c98005407980065079800180020006011b800e4
:101ca8005e009000ee00900061fc070000027800e2
:101cb800e00f520001003d000004eb00080f78001f
:101cc8001e02780004427800614262000482fb0030
:101cd800610262004222dd0066168000b5ff2f0017
:101ce8008502630005027200641688001e027800ef
:101cf80004f0a7000402ea000402e9004f22de0013
:101d0800044278000482fb0061026200040242007f
:101d180026168000d5ff2f00850263000502720099
:101d280024168800180020006011b8003e009000ba
:101d3800ce0090003efc070000027800e00f520041
:101d480001003d000004eb00080f78001e02780037
:101d580004f0a7000402ea000402e9004f22de00b2
:101d6800044278000482fb0061026200040242001f
:101d780066168000d5ff2f008502630005027200f9
:101d8800641688001e0278000442780061426200ee
:101d98000482fb006102620066168000e5ff2f00e6
:101da800850263000502720064168800240e800014
:101db80004024200050020000400be0042fc0700a7
:101dc8000003be003e029000ce02900005f0a10084
:101dd8000401be000600be0090fc07000002be0021
:101de80002002000832c24000400be00ccfb070066
:101df8000002be003407980045079800240e8000b2
:101e080004024200050020000400be002efc07006a
:101e18000003be005e029000ee02900005f0a100f3
:101e28000401be000600be007cfc07000002be00e4
:101e380002002000832c24000400be00b8fb070029
:101e48000002be0054079800650798004f04780008
:101e58000080fa00000006000600fa00881f7800db
:101e68001007980021079800180020006011b8009a
:101e78001e009000ae009000edfb07000002780005
:101e8800e00f520001003d000004eb00080f78004d
:101e98001e02780004f0a7000402ea000402e90028
:101ea8004f22de00044278000482fb0061026200d7
:101eb8000402420066168000d5ff2f0085026300e9
:101ec80005027200641688001e0278000442780039
:101ed800614262000482fb006102620066168000b3
:101ee800e5ff2f0085026300050272006416880072
:101ef800c45d2000240e88001e029000ae029000ef
:101f080005f0a10002002000031f24000400be0009
:101f180042fc07000002be000400be00c6fb07002a
:101f28000002be0004027800b40e88004f04780056
:101f38000080fa00000006000600fa00881f7800fa
:101f48001007980021079800180020006011b800b9
:101f58001e009000ae009000b5fb0700000278005c
:101f6800e00f520001003d000004eb00080f78006c
:101f78001e02780004427800614262000482fb007d
:101f8800610262004222dd0066168000b5ff2f0064
:101f98008502630005027200641688001e0278003c
:101fa80004f0a7000402ea000402e9004f22de0060
:101fb800044278000482fb006102620004024200cd
:101fc80026168000d5ff2f008502630005027200e7
:101fd80024168800c45d2000240e88001e0290008c
:101fe800ae02900005f0a10002002000031f2400ab
:101ff8000400be0009fc07000002be000400be0089
:102008008dfb07000002be0004027800d40e880091
:102018004f0478000080fa00000006000800fa006b
:1020280020079800310798006022b800048fbe008e
:1020380082fd2000930c24002e009000be0090002a
:10204800f6fb07000002be0002002000034824003f
:102058000400be0032fb07000002be00048fbe0071
:102068001e02be000400be000080fa000000060048
:102078000800fa00008fbe00220798003307980076
:102088000080fa00000006001c00fa00889fbe00cd
:10209800400f9800510f98004e0a9000cfa2de0022
:1020a8000400be0085fb07000002be0082032d006d
:1020b800939323000400be00d8fb07000002be0073
:1020c80002002000833424000400be00d3fb070074
:1020d8000002be00048fbe005e0a9000cfa2de00a0
:1020e8000400be0075fb07000002be0012a7250011
:1020f800539223000400be00c8fb07000002be0084
:1021080002002000833424000400be00c3fb070043
:102118000002be0024079800350798005443800049
:10212800654380001e01be000400be009efa070041
:102138000002be0044079800550798003443800009
:10214800454380002e019000be0190000400be00af
:1021580095fa07000002be0064079800750798000a
:1021680094438000a54380004e019000de0190005a
:102178000400be008dfa07000002be0094438800e8
:10218800a543880074438000854380006e01900059
:10219800fe0190000400be0084fa07000002be00a1
:1021a8007443880085438800d4438000e543800059
:1021b8000401be004e009000de0090007afa07008d
:1021c8000002be00d4438800e5438800b443800081
:1021d800c54380000401be006e009000fe00900020
:1021e80071fa07000002be00b4438800c5438800a6
:1021f800f4438000054480006e019000fe019000c9
:102208000400be0085fb07000002be000404be00f7
:102218003644800047448000744380008543800032
:102228000401be000600be007cfb07000002be00e1
:102238000401be000800be005cfa07000002be00f0
:102248000404be005642800067428000b443800008
:10225800c54380000401be000600be006ffb0700f6
:102268000002be000401be000800be004efa0700ce
:102278000002be00040f9800150f98001444800057
:10228800254480004e019000de0190000400be004d
:1022980062fb07000002be000404be005644800032
:1022a8006744800094438000a54380000401be0079
:1022b8000600be0059fb07000002be000401be0074
:1022c8000800be0039fa07000002be000404be0080
:1022d8007642800087428000d4438000e543800036
:1022e8000401be000600be004cfb07000002be0051
:1022f8000401be000800be002bfa07000002be0061
:10230800240f9800350f980018c0b3000200200071
:10231800832c24000e0890009e089000c4fa070041
:1023280000027800e00f520001003c000044eb007e
:10233800e04f54000700320000002000812c2400e8
:10234800fdfe070000002000812c2400c2fe0700cb
:102358001d00370018c0b30002002000832c2c0099
:102368000e0890009e089000affa0700000278005f
:10237800e00f5200010035000044eb00e04f54002c
:102388000700320000002000812c2c00eafe070024
:1023980000002000812c2c00affe07000a00370047
:1023a8000e0a90009e0a900005f0a2000400be00ec
:1023b800e1fe07002e0a9000be0a900005f0a20078
:1023c8000400be00a4fe07004f04be000080fa000f
:1023d800000006000800fa00008fbe0022079800df
:1023e800330798001e02be00344388004543880026
:1023f8002e029000be029000544388006543880076
:102408006022b800d4438800e54388006022b80001
:10241800b4438800c54388006022b800744388002c
:10242800854388006022b80094438800a54388004b
:102438000080fa00000006000000fa00353a80002b
:1024480004e02f0084826200640920000502720003
:10245800343a8800253a800004fe2f000482620086
:102468005400b300243a8800243a80000460a10094
:102478000470a100243a880000000000153a80008a
:102488000402200004826200e00f5200fbff3200c9
:102498000080fa00000006000000fa00e6ff0700ce
:1024a80000d0220011132000220007003dfd070084
:0c24b8005efd07000080fa000000060036
:020000040000fa
:1024c400000800004a000000000000009e08000010
:1024d4000a00000002000000640064000000020022
:1024e40000020000020000007e080000100000004e
:1024f400020000000000c80042000000c8420000c2
:1025040000c842000000c800420000004a08000061
:1025140034000000000000008e08000010000000dd
:1025240000000000a80800000200000002000000f3
:08253400fbff000000000000a5
:020000040000fa
:10253c00f03fb1000180b10006003500ee03090048
:10254c0000000000403fb1000180b100fbff3d00e6
:10255c001000b000203fb0000200350000800900e0
:08256c00000000000000060061
:020000040000fa
:0200000401f009
:04000c0079ff000078
:020000040000fa
:0200000401f009
:04001000bbff000032
:020000040000fa
:0200000401f009
:040014007fff00006a
:020000040000fa
:0200000401f009
:04001c00dfff000002
:00000001FF
