:020000040000fa
:080000000002040000000000f2
:020000040000fa
:100008006e0400006e0400006e0400006e04000020
:100018006e0400006e0400006e0400006e04000010
:100028006e0400006e0400006e0400006e04000000
:100038006e0400006e0400006e0400009a020000c6
:100048006e0400006e0400006e0400006e040000e0
:100058006e0400006e0400006e0400006e040000d0
:100068006e0400006e0400006e0400006e040000c0
:100078006e0400006e0400006e0400006e040000b0
:100088006e0400006e0400006e0400006e040000a0
:100098006e0400006e040000ec020000480300003b
:1000a8006e0400006e0400006e0400006e04000080
:1000b8006e0400006e0400006e0400006e04000070
:1000c8006e0400006e0400006e0400006e04000060
:1000d8006e0400006e0400006e0400006e04000050
:1000e8006e0400006e0400006e0400006e04000040
:1000f8006e0400006e0400006e0400006e04000030
:100108006e0400006e0400006e0400006e0400001f
:100118006e0400006e0400006e0400006e0400000f
:100128006e0400006e0400006e0400006e040000ff
:100138006e0400006e0400006e0400006e040000ef
:100148006e0400006e0400006e0400006e040000df
:100158006e0400006e0400006e0400006e040000cf
:100168006e0400006e0400006e0400006e040000bf
:100178006e0400006e0400006e0400006e040000af
:100188006e0400006e0400006e0400006e0400009f
:100198006e0400006e0400006e0400006e0400008f
:1001a8006e0400006e0400006e0400006e0400007f
:1001b8006e0400006e0400006e0400006e0400006f
:1001c8006e0400006e0400006e0400006e0400005f
:1001d8006e0400006e0400006e0400006e0400004f
:1001e8006e0400006e0400006e0400006e0400003f
:0801f8006e0400006e0400001b
:020000040000fa
:100208006e0400006e0400006e0400006e0400001e
:100218006e0400006e0400006e0400006e0400000e
:100228006e0400006e0400006e0400006e040000fe
:100238006e0400006e0400006e0400009a020000c4
:100248006e0400006e0400006e0400006e040000de
:100258006e0400006e0400006e0400006e040000ce
:100268006e0400006e0400006e0400006e040000be
:100278006e0400006e0400006e0400006e040000ae
:100288006e0400006e0400006e0400006e0400009e
:100298006e0400006e040000ec0200004803000039
:1002a8006e0400006e0400006e0400006e0400007e
:1002b8006e0400006e0400006e0400006e0400006e
:1002c8006e0400006e0400006e0400006e0400005e
:1002d8006e0400006e0400006e0400006e0400004e
:1002e8006e0400006e0400006e0400006e0400003e
:1002f8006e0400006e0400006e0400006e0400002e
:100308006e0400006e0400006e0400006e0400001d
:100318006e0400006e0400006e0400006e0400000d
:100328006e0400006e0400006e0400006e040000fd
:100338006e0400006e0400006e0400006e040000ed
:100348006e0400006e0400006e0400006e040000dd
:100358006e0400006e0400006e0400006e040000cd
:100368006e0400006e0400006e0400006e040000bd
:100378006e0400006e0400006e0400006e040000ad
:100388006e0400006e0400006e0400006e0400009d
:100398006e0400006e0400006e0400006e0400008d
:1003a8006e0400006e0400006e0400006e0400007d
:1003b8006e0400006e0400006e0400006e0400006d
:1003c8006e0400006e0400006e0400006e0400005d
:1003d8006e0400006e0400006e0400006e0400004d
:1003e8006e0400006e0400006e0400006e0400003d
:0803f8006e0400006e04000019
:020000040000fa
:100400006f8820000e7f24000e018800000000008d
:10041000000020000000e000020032000001200087
:10042000200288000c00070020e2200001002000cc
:1004300011000700000020000000e0000200320070
:100440000000020000000000ec03020000000000b9
:100450000040da000000fe004440a9000000200037
:100460000000e0000300320000002000a00188002e
:100470004440a80000000600910188008000780038
:100480000000eb0015003700e280400032a0b4000d
:100490009101ba00e280400032a0b4009102ba009b
:1004a000e280400032a0b4000002eb00472bde00e7
:1004b000f507b200602ce10004003a000059eb009f
:1004c0008301e900fdff3e00040037006128e100e0
:1004d000010032000082eb00040007001101ba00a5
:1004e0000200e000e8ff3a00000006003159ba00bf
:1004f0008301e9000c0032002159ba008301e900b0
:10050000080032000400e00003003a00e2804000ee
:1005100032a0b400f5ff370011d9ba008301e90019
:10052000faff3a008100e800e180400032a0b40008
:10053000000006003600f800809fbe00829fbe00cb
:10054000849fbe00869fbe003400f800000020009b
:10055000a00188000000fa00240f8000d441880028
:10056000a40f8000e4418800e541800074408000d1
:100570000482520054408800d541800084408000ad
:100580000482520064408800e44180007440880086
:10059000d441800084408800644080008402ea00e6
:1005a000544080000402ea008500780004007800ce
:1005b0009704070084e0a9000080fa003400f900e5
:1005c0004f03be004f02be004f01be004f00be00f1
:1005d0003600f900004006003600f800809fbe009b
:1005e000829fbe00849fbe00869fbe000200fa006c
:1005f00087c0a9000042eb00044f7800f800070014
:1006000000027800044f780084c5b3009e42780051
:1006100084cf520003003a0014002000b441880047
:100620000a00370044c2b3009e42780084cf5200d3
:1006300006003a000002eb00c44188000002eb0013
:10064000b441880014002000a4418800b441800017
:10065000e10f520007003a00c541800024812000cc
:10066000048242001e4a7800c44180000402e8006f
:10067000c44188000080fa004f03be004f02be0054
:100680004f01be004f00be003600f90000400600da
:100690000000fa0087e0a9000080fa000040060090
:1006a0000200fa000002eb00040f78000002eb00e9
:1006b000040f7800080037009e02e8002481200023
:1006c0000482420094427800b48220001e0242005c
:1006d000054a78001e0fe8001e027800e20f520063
:1006e000f5ff34000002eb00040f7800090037002a
:1006f0001e027800e50242002481200004824200ac
:1007000094427800f48220001e024200054a7800dc
:100710001e0fe8001e027800e20f5200f4ff3400c2
:10072000b0822000620207000002780014448800b2
:100730000002eb00040f7800010037001e0fe800f4
:10074000340620009e027800848f5200fbff3400a4
:10075000f08220005602070000027800244488003e
:100760000080fa00000006000000fa00c002a900a4
:10077000c022a900c8a2a8006b60a800c842a900b6
:10078000c802a900c022a900c822a90081e0a900ce
:10079000a2022000d155290000402c008c00070047
:1007a000d0f52f006600070051c32000d0fa2d00bd
:1007b0005e000700c0ff2f004a00070035358000ab
:1007c00004fe2f00048262005400b3003435880018
:1007d0000080fa00000006000800fa00100507007b
:1007e000e1ff0700140f80000440a0000450a100a6
:1007f0000460a000140f88006022b800048fbe00bf
:1008000024448000c5f92f008482420014448000f3
:100810004606200004025300848242002400200087
:10082000110009008402d800000278002407980013
:1008300024448000c5f92f008482420014448000c3
:100840004406b10084824200240020001100090007
:100850008402d80000027800340798003e0290001d
:10086000cfa2de000400be002b0107000002be0084
:100870000400be005a0307002e029000cfa2de0043
:100880000400be00240107000002be000400be00f8
:100890008b030700a4418000e10f520001003a00e1
:1008a0007fff07006022b800048fbe0004003700fd
:1008b00014002000050020001e0f42005e974a0031
:1008c00034062000050020001e03be00840f5300e4
:1008d000858f5b00f6ff3400c9ff37000040da0067
:1008e0000000fe0084e0a90067026000f5ff280018
:1008f0004c22dd00360580008682620068006000c0
:10090000850272004300de0035058800610060004a
:10091000f4f72f004700dd00a50480000502620007
:1009200004027000a4048800000006000621ef0005
:1009300061088800800888001061a9000000060096
:1009400087c0a9006702600087e0a9004822dd0097
:10095000f58f2f0096058000868262008502720066
:1009600000027800950588000407b200f5ff280012
:100970004822dd00960580008682620085027200b2
:1009800068026000950588004322de00f5ff2b0019
:1009900061026200b6048000868262004e22dd00a1
:1009a0000008b200850272004700de00b50488002e
:1009b00061006000f4ff27004f00dd00b5048000f7
:1009c0000502620004027000b40488000000060002
:1009d000c211880080118800911188000000060073
:1009e0008411800066026200e60f520002003a00a5
:1009f000b011800000000600b0118000f00fb200be
:100a00000000060003f0a200889fbe008a9fbe007f
:100a10008c1f780000010700070133006450e100db
:100a20004f0032006420e1005200320003826c006b
:100a300007003b000905d0000306d000820f5400d8
:100a40000c065d00020039000200320089017800c6
:100a5000030678008582550004003d000003fd0078
:100a60008103fd008502ea008b854200840f72003d
:100a700002003b0060001000e08018006011b80028
:100a80000005eb007a28e1000a0039000600780032
:100a9000c75ddd00f707b200878075002d003700c5
:100aa000828171000a017800610560008180d100b7
:100ab0000080d3008502e900f9ff3b0006044000f6
:100ac0008784480002003b0060041400e0841c009e
:100ad0000988a300070032008a81710082817100b9
:100ae000610164008904d1000884d3008b05e8000b
:100af000170037000978a30013003a000b00e0004c
:100b0000130034008b05e9000804440089844c007c
:100b10000a4474000978a3000d003a000b00e000bd
:100b2000070034008b05e9000804440089844c0068
:100b300001003a000b0020000978a300f7ff320003
:100b40000001eb0002003700828171000a01780089
:100b5000760007000cf0a70001f0a000bf003700ee
:100b60006420e10002003a00838f6c00bf00330074
:100b70000801be000200be00b8003700889fbe001a
:100b80008a9fbe008c1f7800a3000700aa003300d4
:100b900003866c006450e1002e0032006420e10006
:100ba000330032006150e1002f0032006120e1008b
:100bb0003100320085855500eb07b00009002000a8
:100bc00008042000050037000804440089844c0014
:100bd0000a0031000603430087834b0000015300e5
:100be00081815b00f8ff33000203be000800a00013
:100bf0000804440089844c00f6ff3900c639dd0042
:100c00008301730001003200130020008904d10029
:100c10000884d3000998a300050032000800a7004b
:100c20000300a0008904d1000884d3008b05e800ec
:100c30008904d1000884d3000001eb000281d200b6
:100c40003a00070001f0a1000cf0a70001f0a0009d
:100c5000820037006420e100840032000801be00f9
:100c60000200be00f7ff37006120e1007f00320084
:100c70006000b800f3ff37000000200001f82700f3
:100c8000f0ff370014002000af003700f4ff2f0002
:100c9000ad0037000001be004a0007000470a70045
:100ca00003f0a1006509b100160032000d00350007
:100cb0006828e10006003500f0ff2f00f1ff270053
:100cc0000300e00013003b000100280000000500c5
:100cd00000004000818048008502e900fcff3a00e6
:100ce00008003700f88f420002003c008000eb0053
:100cf000000005008100d1000080d3008502e800db
:100d0000fcff3a000300e00002003b00600010001e
:100d1000e0801800000006004f89de0082017800a4
:100d2000a40037006011b800b20037008100200035
:100d3000618055000b003d000b00200061fe2f007c
:100d40000100e1001d003400828171006101640036
:100d50008904d1000884d3000000e800faff3a00bb
:100d60007100200061006400030070000200600058
:100d70000900320061044400e0844c000988a500a9
:100d8000050032008b05e8006808e10002003a0027
:100d90008904d1000884d300f20f20000258e1003a
:100da00005003d00c75ddd00f907b20089807500d0
:100db00008007800000006000bf827008b00780080
:100dc00000000500c70ade00f107b200f50fb2000f
:100dd00008003200e1cf4200020032000170a000a2
:100de00024000500810f7000010032000408050096
:100df00044000500810f700002003a001400050055
:100e00008502e9000000400081c04800fcff3b0073
:100e10000170a000240005000004be00e9ff0700e7
:100e20000003be000405be000200be00e5ff07008f
:100e3000844f7500000006000200be006450e1000f
:100e4000050036006420e100020036000968a300b6
:100e500001003a000800be000160a0004f067800c3
:100e60004f05be004f04be0000000600f0ff2f003b
:100e7000f1ff2700f9ff3700889fbe008a9fbe0060
:100e80008c1f7800e4ff0700ebff330003866c0043
:100e90006450e100240032006420e10027003200a9
:100ea0006150e100220032006120e10021003200a7
:100eb0008b854200eb07b1000134b800003ab8005e
:100ec0000804420089844a00013ab8000030b800a2
:100ed0008880400009014a000400330000004000ff
:100ee00081804800020149008b05e900c909dd0045
:100ef000830170000100320013002000c814de00de
:100f00004814dd004709de001200b200c808de0008
:100f10000884700085ff070001f0a1000cf0a70015
:100f200001f0a000cdff37006120e100cfff3200cb
:100f30000801be000200be00f7ff37006150e1006b
:100f4000fcff3a00c9ff3700889fbe008a9fbe00a1
:100f5000841f7800b0ff07004f00780011003300b5
:100f6000f0ff2f00838f6c0006003b000405650036
:100f70000a00a7000800370009f0a60010002000b2
:100f800008003700820f5400838f5c000300390093
:100f90001000200001003e000000200009f0a70022
:100fa0000000ea004f05be004f04be000000e00054
:100fb00000000600881f7800030478000300e000aa
:100fc00007003d0060001000e0801800600119007b
:100fd000e081190002003b0001f02d000300370002
:100fe0000400070008f0a70001f0a0004f047800fb
:100ff00000000600889fbe008a9fbe00008270002d
:101000000402710004827100260032000004be0058
:101010000200be006011b8006b092000950220009c
:101020000182cf000a0039000541b1000082cf00e3
:10103000070039000541b1000982cf0004003900e2
:101040000541b1000882cf00010039000541b1001f
:1010500005425200120032000a003b0082817100fa
:10106000610164008100d1000080d3008984d30035
:101070000884d3008b05e8000442e800f7ff3a003b
:10108000070037000804440089844c000000480031
:10109000818048008b05e9000442e900f9ff3a002d
:1010a00022ff07004f05be004f04be0000000600ef
:1010b00006c2b3000002780004007800b042780055
:1010c00086cf5200fbff3200e9cf5200f9ff320019
:1010d000d6c2b30086cf520003003a000002780067
:1010e00016c0b300050037000043eb00b7c2b300e1
:1010f00087cf520001003a00000278000000eb00a8
:10110000020037006a00b90000804200b402fb0010
:101110000503b100e98f5200faff3600e04f53009b
:0c112000010032000000ea0000000600a0
:020000040000fa
:10112c000000fa00c1e1a800040e80000420a10018
:10113c000430a100040e8800040e80000400a100fd
:10114c000410a100040e8800c45d2000240e880049
:10115c00c921a800c941a800c881a800c8a1a9003c
:10116c00c8c1a800c801a900c821a900c841a9008c
:10117c000002eb00b40e88000002eb00d40e8800d5
:10118c00c842a900c802a900c022a900c822a9000f
:10119c00cc42a900c422a900cc22a900cc02a900ef
:1011ac000080fa00000006000000fa00e1a1a8008f
:1011bc00040f80000480a1000490a00004a0a000f3
:1011cc00040f8800e041a900e021a900e53480006b
:1011dc0004fe2f00048262006400b300e434880033
:1011ec00e5348000f40f2e0084826200047020002d
:1011fc0005027200e4348800f1a1a800840f80007d
:10120c000480a1000490a00004a0a000840f88001a
:10121c00f041a900f021a9000535800004fe2f0043
:10122c00048262000430a00004358800053580007b
:10123c00f40f2e00848262000490200005027200dc
:10124c00043588000080fa00000006000a00fa004d
:10125c00881f780010079800210798003207980023
:10126c0043079800180020006011b8003e00900061
:10127c00ce00900082fe070000027800e00f5200c2
:10128c0001003d000004eb00080f78001e027800fe
:10129c0004427800614262000482fb006102620039
:1012ac004222dd0066168000b5ff2f008502630028
:1012bc0005027200641688001e02780004f0a70074
:1012cc000402ea000402e9004f22de000442780026
:1012dc000482fb00610262000402420026168000b8
:1012ec00d5ff2f00850263000502720024168800ca
:1012fc00180020006011b8001e009000ae00900095
:10130c005ffe070000027800e00f520001003d0074
:10131c000004eb00080f78001e02780004f0a70010
:10132c000402ea000402e9004f22de0004427800c5
:10133c000482fb0061026200040242006616800017
:10134c00d5ff2f0085026300050272006416880029
:10135c001e02780004427800614262000482fb00a5
:10136c006102620066168000e5ff2f0085026300b3
:10137c000502720064168800c45d2000240e8800eb
:10138c001e029000ae02900005f0a10002002000a9
:10139c00031f24000400be00b4fe07000002be00c0
:1013ac000400be0038fe07000002be0004027800f4
:1013bc00b40e88003e029000ce02900005f0a10011
:1013cc0002002000031f24000400be00a7fe07003b
:1013dc000002be000400be002bfe07000002be008f
:1013ec0004027800d40e88004f0478000080fa00c4
:1013fc00000006000e00fa00881f78001007980005
:10140c00210798003207980043079800540798006a
:10141c0065079800180020006011b8005e0090006d
:10142c00ee00900016fe070000027800e00f52005c
:10143c0001003d000004eb00080f78001e0278004c
:10144c0004427800614262000482fb006102620087
:10145c004222dd0066168000b5ff2f008502630076
:10146c0005027200641688001e02780004f0a700c2
:10147c000402ea000402e9004f22de000442780074
:10148c000482fb0061026200040242002616800006
:10149c00d5ff2f0085026300050272002416880018
:1014ac00180020006011b8003e009000ce009000a3
:1014bc00f3fd070000027800e00f520001003d0030
:1014cc000004eb00080f78001e02780004f0a7005f
:1014dc000402ea000402e9004f22de000442780014
:1014ec000482fb0061026200040242006616800066
:1014fc00d5ff2f0085026300050272006416880078
:10150c001e02780004427800614262000482fb00f3
:10151c006102620066168000e5ff2f008502630001
:10152c000502720064168800240e8000040242003a
:10153c00050020000400be00f7fd07000003be00fc
:10154c003e029000ce02900005f0a1000401be0006
:10155c000600be0045fe07000002be00020020008f
:10156c00832c24000400be0081fd07000002be0095
:10157c003407980045079800240e800004024200ae
:10158c00050020000400be00e3fd07000003be00c0
:10159c005e029000ee02900005f0a1000401be0076
:1015ac000600be0031fe07000002be000200200053
:1015bc00832c24000400be006dfd07000002be0059
:1015cc0054079800650798004f0478000080fa00d3
:1015dc00000006000600fa00881f7800100798002b
:1015ec0021079800180020006011b8001e00900020
:1015fc00ae009000a2fd070000027800e00f520040
:10160c0001003d000004eb00080f78001e0278007a
:10161c0004f0a7000402ea000402e9004f22de00f5
:10162c00044278000482fb00610262000402420062
:10163c0066168000d5ff2f0085026300050272003c
:10164c00641688001e027800044278006142620031
:10165c000482fb006102620066168000e5ff2f0029
:10166c00850263000502720064168800c45d2000c8
:10167c00240e88001e029000ae02900005f0a1001e
:10168c0002002000031f24000400be00f7fd070029
:10169c000002be000400be007bfd07000002be007d
:1016ac0004027800b40e88004f0478000080fa0021
:1016bc00000006000600fa00881f7800100798004a
:1016cc0021079800180020006011b8001e0090003f
:1016dc00ae0090006afd070000027800e00f520097
:1016ec0001003d000004eb00080f78001e0278009a
:1016fc0004427800614262000482fb0061026200d5
:10170c004222dd0066168000b5ff2f0085026300c3
:10171c0005027200641688001e02780004f0a7000f
:10172c000402ea000402e9004f22de0004427800c1
:10173c000482fb0061026200040242002616800053
:10174c00d5ff2f0085026300050272002416880065
:10175c00c45d2000240e88001e029000ae02900092
:10176c0005f0a10002002000031f24000400be00ad
:10177c00befd07000002be000400be0042fd0700d3
:10178c000002be0004027800d40e88004f047800da
:10179c000080fa00000006000800fa0020079800fc
:1017ac00310798006022b800048fbe0082fd200033
:1017bc00930c24002e009000be009000abfd07009f
:1017cc000002be0002002000034824000400be00fa
:1017dc00e7fc07000002be00048fbe001e02be0024
:1017ec000400be000080fa00000006000800fa00a9
:1017fc00008fbe0022079800330798000080fa0083
:10180c00000006001c00fa00889fbe00400f9800e4
:10181c00510f98004e0a9000cfa2de000400be00cb
:10182c003afd07000002be0082032d0093932300b3
:10183c000400be008dfd07000002be000200200067
:10184c00833424000400be0088fd07000002be00a3
:10185c00048fbe005e0a9000cfa2de000400be0022
:10186c002afd07000002be0012a725005392230098
:10187c000400be007dfd07000002be000200200037
:10188c00833424000400be0078fd07000002be0073
:10189c002407980035079800f44280000543800027
:1018ac001e01be000400be0053fc07000002be0077
:1018bc004407980055079800d4428000e542800008
:1018cc002e019000be0190000400be004afc0700ef
:1018dc000002be006407980075079800344380002e
:1018ec00454380004e019000de0190000400be00d4
:1018fc0042fc07000002be003443880045438800c8
:10190c0014438000254380006e019000fe0190007e
:10191c000400be0039fc07000002be00144388001e
:10192c002543880074438000854380000401be0079
:10193c004e009000de0090002ffc07000002be005d
:10194c0074438800854388005443800065438000bd
:10195c000401be006e009000fe00900026fc070003
:10196c000002be0054438800654388009443800005
:10197c00a54380006e019000fe0190000400be00a3
:10198c003afd07000002be000404be00d6438000ee
:10199c00e743800014438000254380000401be000f
:1019ac000600be0031fd07000002be000401be00af
:1019bc000800be0011fc07000002be000404be00bb
:1019cc00f64180000742800054438000654380004c
:1019dc000401be000600be0024fd07000002be008c
:1019ec000401be000800be0003fc07000002be009c
:1019fc00040f9800150f9800b4438000c543800075
:101a0c004e019000de0190000400be0017fd07009f
:101a1c000002be000404be00f643800007448000b0
:101a2c0034438000454380000401be000600be0024
:101a3c000efd07000002be000401be000800be003f
:101a4c00eefb07000002be000404be00164280003c
:101a5c002742800074438000854380000401be004f
:101a6c000600be0001fd07000002be000401be001e
:101a7c000800be00e0fb07000002be00240f980027
:101a8c00350f980018c0b30002002000832c2400ee
:101a9c000e0890009e08900079fc07000002780068
:101aac00e00f520001003c000044eb00e04f5400fa
:101abc000700320000002000812c2400fdfe0700ee
:101acc0000002000812c2400c2fe07001d003700fe
:101adc0018c0b30002002000832c2c000e089000cc
:101aec009e08900064fc070000027800e00f520092
:101afc00010035000044eb00e04f540007003200b9
:101b0c0000002000812c2c00eafe070000002000c1
:101b1c00812c2c00affe07000a0037000e0a900043
:101b2c009e0a900005f0a2000400be00e1fe070032
:101b3c002e0a9000be0a900005f0a2000400be0020
:101b4c00a4fe07004f04be000080fa00000006004f
:101b5c000800fa00008fbe00220798003307980097
:101b6c001e02be00d4428800e54288002e0290007e
:101b7c00be029000f4428800054388006022b80041
:101b8c0074438800854388006022b8005443880061
:101b9c00654388006022b800144388002543880000
:101bac006022b80034438800454388000080fa0066
:101bbc00000006000000fa00353a800004e02f0017
:101bcc00848262006409200005027200343a8800a5
:101bdc00253a800004fe2f00048262005400b300fa
:101bec00243a8800243a80000460a1000470a1000b
:101bfc00243a880000000000153a800004022000fe
:101c0c0004826200e00f5200fbff32000080fa00f9
:101c1c00000006000000fa00e6ff070000d02200da
:101c2c0011132000190007003dfd07005efd0700a1
:081c3c000080fa000000060020
:020000040000fa
:101c4400000800003e0000000000000082080000c0
:101c540004000000020000006400640000000000b2
:101c64007208000010000000020000000000c8001c
:101c740042000000c842000000c842000000c80042
:101c8400420000003e080000340000000000000094
:041c9400000000004c
:020000040000fa
:101c9800f03fb1000180b10006003500ee030900f5
:101ca80000000000403fb1000180b100fbff3d0093
:101cb8001000b000203fb00002003500008009008d
:081cc80000000000000006000e
:020000040000fa
:0200000401f009
:04000c0079ff000078
:020000040000fa
:0200000401f009
:04001000bbff000032
:020000040000fa
:0200000401f009
:040014007fff00006a
:020000040000fa
:0200000401f009
:04001c00dfff000002
:00000001FF
